{
    "contractName": "ByteArray",
    "abi": [
        {
            "inputs": [],
            "name": "a",
            "outputs": [
                {
                    "internalType": "bytes1",
                    "name": "",
                    "type": "bytes1"
                }
            ],
            "stateMutability": "view",
            "type": "function"
        },
        {
            "inputs": [],
            "name": "arrayWei",
            "outputs": [
                {
                    "internalType": "bytes1",
                    "name": "",
                    "type": "bytes1"
                }
            ],
            "stateMutability": "view",
            "type": "function"
        },
        {
            "inputs": [],
            "name": "b",
            "outputs": [
                {
                    "internalType": "bytes1",
                    "name": "",
                    "type": "bytes1"
                }
            ],
            "stateMutability": "view",
            "type": "function"
        },
        {
            "inputs": [],
            "name": "bijiao",
            "outputs": [
                {
                    "internalType": "bool",
                    "name": "",
                    "type": "bool"
                }
            ],
            "stateMutability": "view",
            "type": "function"
        },
        {
            "inputs": [],
            "name": "getLength",
            "outputs": [
                {
                    "internalType": "uint256",
                    "name": "",
                    "type": "uint256"
                }
            ],
            "stateMutability": "view",
            "type": "function"
        },
        {
            "inputs": [],
            "name": "num1",
            "outputs": [
                {
                    "internalType": "bytes1",
                    "name": "",
                    "type": "bytes1"
                }
            ],
            "stateMutability": "view",
            "type": "function"
        }
    ],
    "bytecode": "60806040526000805464ffffffffff191664687a7a687a17905534801561002557600080fd5b50610150806100356000396000f3fe608060405234801561001057600080fd5b50600436106100625760003560e01c80630dbe671f146100675780633b9eac4b146100995780634df7e3d0146100a657806384f338de146100bb578063930af63f146100ce578063be1c766b1461010b575b600080fd5b60005461007b906301000000900460f81b81565b6040516001600160f81b031990911681526020015b60405180910390f35b60005461007b9060f81b81565b60005461007b90640100000000900460f81b81565b6000546301000000900460f81b1961007b565b6100fb6000546001600160f81b0319640100000000820460f890811b82166301000000909304901b161190565b6040519015158152602001610090565b6040516001815260200161009056fea26469706673582212203483a5c960d3abbab684425eb5df20f9a20a707301911005ce16b4cd93ec5bdb64736f6c63430008070033",
    "sourcePath": "/Users/veshen/Documents/solidity/ByteArray.sol",
    "compiler": {
        "name": "solc",
        "version": "0.8.7+commit.e28d00a7"
    },
    "functionHashes": {
        "a()": "0dbe671f",
        "arrayWei()": "84f338de",
        "b()": "4df7e3d0",
        "bijiao()": "930af63f",
        "getLength()": "be1c766b",
        "num1()": "3b9eac4b"
    },
    "gasEstimates": {
        "creation": {
            "codeDepositCost": "67200",
            "executionCost": "24341",
            "totalCost": "91541"
        },
        "external": {
            "a()": "2306",
            "arrayWei()": "2369",
            "b()": "2350",
            "bijiao()": "2440",
            "getLength()": "265",
            "num1()": "2317"
        }
    }
}